{
  "contractName": "StudentRegistry",
  "abi": [
    {
      "anonymous": false,
      "inputs": [
        {
          "indexed": true,
          "internalType": "string",
          "name": "studentNumber",
          "type": "string"
        },
        {
          "indexed": false,
          "internalType": "string",
          "name": "name",
          "type": "string"
        },
        {
          "indexed": false,
          "internalType": "string",
          "name": "course",
          "type": "string"
        },
        {
          "indexed": false,
          "internalType": "string",
          "name": "schoolYear",
          "type": "string"
        },
        {
          "indexed": false,
          "internalType": "string",
          "name": "university",
          "type": "string"
        }
      ],
      "name": "StudentAdded",
      "type": "event"
    },
    {
      "inputs": [
        {
          "internalType": "string",
          "name": "_name",
          "type": "string"
        },
        {
          "internalType": "string",
          "name": "_course",
          "type": "string"
        },
        {
          "internalType": "string",
          "name": "_schoolYear",
          "type": "string"
        },
        {
          "internalType": "string",
          "name": "_studentNumber",
          "type": "string"
        },
        {
          "internalType": "string",
          "name": "_university",
          "type": "string"
        }
      ],
      "name": "addStudent",
      "outputs": [],
      "stateMutability": "nonpayable",
      "type": "function"
    },
    {
      "inputs": [
        {
          "internalType": "string",
          "name": "_name",
          "type": "string"
        }
      ],
      "name": "getStudent",
      "outputs": [
        {
          "internalType": "string",
          "name": "",
          "type": "string"
        },
        {
          "internalType": "string",
          "name": "",
          "type": "string"
        },
        {
          "internalType": "string",
          "name": "",
          "type": "string"
        },
        {
          "internalType": "string",
          "name": "",
          "type": "string"
        },
        {
          "internalType": "string",
          "name": "",
          "type": "string"
        }
      ],
      "stateMutability": "view",
      "type": "function",
      "constant": true
    }
  ],
  "bytecode": "0x608060405234801561001057600080fd5b50610b48806100206000396000f3fe608060405234801561001057600080fd5b50600436106100365760003560e01c80639d35e6c21461003b578063d029661214610057575b600080fd5b610055600480360381019061005091906107b0565b61008b565b005b610071600480360381019061006c91906108b7565b610277565b604051610082959493929190610988565b60405180910390f35b60006040518060a00160405280878152602001868152602001858152602001848152602001838152509050806000846040516100c79190610a3a565b908152602001604051809103902060008201518160000190805190602001906100f19291906105b3565b50602082015181600101908051906020019061010e9291906105b3565b50604082015181600201908051906020019061012b9291906105b3565b5060608201518160030190805190602001906101489291906105b3565b5060808201518160040190805190602001906101659291906105b3565b509050508060018760405161017a9190610a3a565b908152602001604051809103902060008201518160000190805190602001906101a49291906105b3565b5060208201518160010190805190602001906101c19291906105b3565b5060408201518160020190805190602001906101de9291906105b3565b5060608201518160030190805190602001906101fb9291906105b3565b5060808201518160040190805190602001906102189291906105b3565b509050508260405161022a9190610a3a565b60405180910390207f33e9d9c3de9c4bdd082994f88f37a15f621e6814f7d48028f6fb3b1dc57b3f6a878787866040516102679493929190610a51565b60405180910390a2505050505050565b606080606080606060006001876040516102919190610a3a565b90815260200160405180910390206040518060a00160405290816000820180546102ba90610ae1565b80601f01602080910402602001604051908101604052809291908181526020018280546102e690610ae1565b80156103335780601f1061030857610100808354040283529160200191610333565b820191906000526020600020905b81548152906001019060200180831161031657829003601f168201915b5050505050815260200160018201805461034c90610ae1565b80601f016020809104026020016040519081016040528092919081815260200182805461037890610ae1565b80156103c55780601f1061039a576101008083540402835291602001916103c5565b820191906000526020600020905b8154815290600101906020018083116103a857829003601f168201915b505050505081526020016002820180546103de90610ae1565b80601f016020809104026020016040519081016040528092919081815260200182805461040a90610ae1565b80156104575780601f1061042c57610100808354040283529160200191610457565b820191906000526020600020905b81548152906001019060200180831161043a57829003601f168201915b5050505050815260200160038201805461047090610ae1565b80601f016020809104026020016040519081016040528092919081815260200182805461049c90610ae1565b80156104e95780601f106104be576101008083540402835291602001916104e9565b820191906000526020600020905b8154815290600101906020018083116104cc57829003601f168201915b5050505050815260200160048201805461050290610ae1565b80601f016020809104026020016040519081016040528092919081815260200182805461052e90610ae1565b801561057b5780601f106105505761010080835404028352916020019161057b565b820191906000526020600020905b81548152906001019060200180831161055e57829003601f168201915b505050505081525050905080600001518160200151826040015183606001518460800151955095509550955095505091939590929450565b8280546105bf90610ae1565b90600052602060002090601f0160209004810192826105e15760008555610628565b82601f106105fa57805160ff1916838001178555610628565b82800160010185558215610628579182015b8281111561062757825182559160200191906001019061060c565b5b5090506106359190610639565b5090565b5b8082111561065257600081600090555060010161063a565b5090565b6000604051905090565b600080fd5b600080fd5b600080fd5b600080fd5b6000601f19601f8301169050919050565b7f4e487b7100000000000000000000000000000000000000000000000000000000600052604160045260246000fd5b6106bd82610674565b810181811067ffffffffffffffff821117156106dc576106db610685565b5b80604052505050565b60006106ef610656565b90506106fb82826106b4565b919050565b600067ffffffffffffffff82111561071b5761071a610685565b5b61072482610674565b9050602081019050919050565b82818337600083830152505050565b600061075361074e84610700565b6106e5565b90508281526020810184848401111561076f5761076e61066f565b5b61077a848285610731565b509392505050565b600082601f8301126107975761079661066a565b5b81356107a7848260208601610740565b91505092915050565b600080600080600060a086880312156107cc576107cb610660565b5b600086013567ffffffffffffffff8111156107ea576107e9610665565b5b6107f688828901610782565b955050602086013567ffffffffffffffff81111561081757610816610665565b5b61082388828901610782565b945050604086013567ffffffffffffffff81111561084457610843610665565b5b61085088828901610782565b935050606086013567ffffffffffffffff81111561087157610870610665565b5b61087d88828901610782565b925050608086013567ffffffffffffffff81111561089e5761089d610665565b5b6108aa88828901610782565b9150509295509295909350565b6000602082840312156108cd576108cc610660565b5b600082013567ffffffffffffffff8111156108eb576108ea610665565b5b6108f784828501610782565b91505092915050565b600081519050919050565b600082825260208201905092915050565b60005b8381101561093a57808201518184015260208101905061091f565b83811115610949576000848401525b50505050565b600061095a82610900565b610964818561090b565b935061097481856020860161091c565b61097d81610674565b840191505092915050565b600060a08201905081810360008301526109a2818861094f565b905081810360208301526109b6818761094f565b905081810360408301526109ca818661094f565b905081810360608301526109de818561094f565b905081810360808301526109f2818461094f565b90509695505050505050565b600081905092915050565b6000610a1482610900565b610a1e81856109fe565b9350610a2e81856020860161091c565b80840191505092915050565b6000610a468284610a09565b915081905092915050565b60006080820190508181036000830152610a6b818761094f565b90508181036020830152610a7f818661094f565b90508181036040830152610a93818561094f565b90508181036060830152610aa7818461094f565b905095945050505050565b7f4e487b7100000000000000000000000000000000000000000000000000000000600052602260045260246000fd5b60006002820490506001821680610af957607f821691505b602082108103610b0c57610b0b610ab2565b5b5091905056fea26469706673582212205f94d962f9d739bf691df466bc70386189a7f17c1fde88be533b8808c07bba6164736f6c634300080d0033",
  "immutableReferences": {},
  "source": "// SPDX-License-Identifier: MIT\r\npragma solidity >=0.4.25 <0.9.0;\r\n\r\ncontract StudentRegistry {\r\n    event StudentAdded(string indexed studentNumber, string name, string course, string schoolYear, string university);\r\n\r\n    struct Student {\r\n        string name;\r\n        string course;\r\n        string schoolYear;\r\n        string studentNumber;\r\n        string university;\r\n    }\r\n\r\n    mapping(string => Student) studentsByNumber; // Mapping using student_number\r\n    mapping(string => Student) studentsByName;   // Mapping using student_name\r\n\r\n    function addStudent(\r\n        string memory _name,\r\n        string memory _course,\r\n        string memory _schoolYear,\r\n        string memory _studentNumber,\r\n        string memory _university\r\n    ) external {\r\n        Student memory newStudent = Student(_name, _course, _schoolYear, _studentNumber, _university);\r\n        studentsByNumber[_studentNumber] = newStudent;\r\n        studentsByName[_name] = newStudent;\r\n\r\n        // Log the added student information\r\n        emit StudentAdded(_studentNumber, _name, _course, _schoolYear, _university);\r\n    }\r\n\r\n    function getStudent(string memory _name) external view returns (string memory, string memory, string memory, string memory, string memory) {\r\n        Student memory student = studentsByName[_name];\r\n        return (student.name, student.course, student.schoolYear, student.studentNumber, student.university);\r\n    }\r\n}\r\n",
  "sourcePath": "C:\\xampp\\htdocs\\Angelo-Case-Study-porca\\contracts\\StudentRegistry .sol",
  "compiler": {
    "name": "solc",
    "version": "0.8.13+commit.abaa5c0e.Emscripten.clang"
  },
  "schemaVersion": "3.4.16",
  "updatedAt": "2023-12-01T15:46:56.957Z",
  "networkType": "ethereum",
  "devdoc": {
    "kind": "dev",
    "methods": {},
    "version": 1
  },
  "userdoc": {
    "kind": "user",
    "methods": {},
    "version": 1
  }
}